:020000040800F2
:10000000500A002049020008850200088702000803
:10001000890200088B0200088D0200080000000021
:100020000000000000000000000000008F02000837
:1000300091020008000000009302000895020008E9
:10004000970200089702000897020008970200082C
:10005000970200089702000897020008970200081C
:10006000970200089702000897020008970200080C
:1000700097020008970200089702000897020008FC
:1000800097020008970200089702000897020008EC
:1000900097020008970200089702000897020008DC
:1000A00097020008970200089702000897020008CC
:1000B00097020008970200089702000897020008BC
:1000C00097020008970200089702000897020008AC
:1000D000970200089702000897020008970200089C
:1000E000970200089702000897020008970200088C
:1000F000970200089702000897020008970200087C
:10010000970200089702000897020008970200086B
:10011000970200089702000897020008970200085B
:10012000970200089702000897020008970200084B
:10013000970200089702000897020008970200083B
:10014000970200089702000897020008970200082B
:10015000970200089702000897020008970200081B
:10016000970200089702000897020008970200080B
:10017000970200089702000897020008000000009C
:10018000970200089702000800F002F800F04DF80E
:100190000AA090E8000C82448344AAF10107DA45E2
:1001A00001D100F042F8AFF2090EBAE80F0013F0E7
:1001B000010F18BFFB1A43F001031847A01C0000F1
:1001C000C01C0000103A24BF78C878C1FAD8520782
:1001D00024BF30C830C144BF04680C6070470000C1
:1001E0000023002400250026103A28BF78C1FBD840
:1001F000520728BF30C148BF0B607047642900F028
:10020000D980732900F03F83002070471FB501F0AB
:10021000F3FA00F0B7FD04000020002101F0D6FA47
:10022000401C60601FBD10B510BD00F085FB11467D
:10023000FFF7ECFF01F0C2FA00F08EFD03B4FFF708
:10024000F2FF03BC00F0A2FD16481749174B994274
:100250003CBF50F8042B41F8042BF8D314494FF05D
:1002600000028B4238BF43F8042BFAD3DFF8440076
:10027000016841F470010160BFF34F8FBFF36F8FCE
:100280000D480047FEE7FEE7FEE7FEE7FEE7FEE774
:10029000FEE7FEE7FEE7FEE708480949094A0A4B80
:1002A000704700008C1F000800000020080000209C
:1002B000500A002088ED00E0890100085004002069
:1002C000500A002050060020500600200FB41CB534
:1002D000084B06AA7B4469460090059800F0A9FAED
:1002E00004460020694600F0B7FA20461CBC5DF8C1
:1002F00014FB0000810500002DE9F0410E46044684
:10030000002020622046E168884730B3252805D0C8
:10031000D4E901219047206A401CF2E7E1682046B9
:1003200000278847050018D0A5F14100192802D8F8
:1003300020354FF400673246294620462760FFF7F4
:100340005DFF40B1012804D0F61D26F007060836EF
:10035000D8E7361DD6E72846DAE7206ABDE8F081FF
:1003600070B50C460546012A05D02878800600D5D0
:10037000EA69002302E0012305E05B1C934202D2FC
:10038000E05C0028F9D1A869E618C01AA861286ABB
:10039000184428622846AFF3008004E0D5E9012123
:1003A00014F8010B9047B442F8D32846AFF300800D
:1003B00070BD00002DE9F041064600241068752943
:1003C000314616A510D0AFF30080002802DA404273
:1003D00013A507E031688A0701D512A502E0490795
:1003E00004D511A5012401E0AFF3008000210A2209
:1003F00006F1240709E0B0FBF2FCB0FBF2F302FBCC
:100400001C00303078541846491C0028F3D123468C
:100410002A463046BDE8F04100F0ACB900000000CB
:100420002D0000002B000000200000000FB400B5DC
:1004300089B00BA86A46009003480A9900F036FA82
:1004400009B05DF814FB0000040000202DE9FF5FF7
:100450001D464FF0FF3B91464FF000085F46D5E93F
:100460000146A96901987F1C8847296A8246884706
:100470000028F6D1BAF1FF3F0CD0002E24F4C0645E
:1004800019DD600614D5BAF12B0F09D0BAF12D0F82
:100490000ED103E0584604B000F07EB844F4806406
:1004A000A96901987F1C8847761E8246002E02DDCE
:1004B000BAF1300F03D0B9F1000F26D032E0A969AC
:1004C000761E01987F1C44F400748847002E8246F3
:1004D00005DDBAF1780F06D0BAF1580F03D0B9F1A3
:1004E000000F10D01EE0B9F1000F02D0B9F1100FCB
:1004F00018D1A969761E01987F1C24F400748847DE
:100500008246102002E0082000E00A20814609E02F
:10051000A96908FB0908761E01987F1C44F4007441
:1005200088478246002E05DD4946504600F0AFF967
:100530000028EDDAE96901988847A00502D46FF038
:100540000100A8E7E00725D1600613D5600502D5B4
:10055000C8F1000000E0404629680A1D2A600968C9
:10056000220501D5087015E0220701D5088011E0A9
:1005700008600FE02868011D29600068210502D588
:1005800080F8008006E0210702D5A0F8008001E095
:10059000C0F8008038467EE730BCBDE8C09F2DE93A
:1005A000FF5F4FF000089946144646469169D2E92C
:1005B00001A7DDF838B001988847054659EA0B00D5
:1005C00005D009E0A1690198761C88470546216A93
:1005D000284688470028F5D1681C03D05FEACA7016
:1005E00005D015E04FF0FF3004B000F048B82068A7
:1005F000011D2160D0F800800AE05FEACA7001D1D5
:1006000008F8015BA169761C01987F1E88470546A2
:10061000002F1ADD681C18D0B9F1000F0DD0E817B3
:1006200005EBD060421120F01F0059F822102A1A61
:10063000012090400142E0D107E0BBF1000FDCD186
:100640002846216A88470028D7D0E1690198884761
:10065000BBF1000F07D1002E05DD5FEACA7002D1A1
:10066000002188F80010A068B84203DDBBF1000F3C
:1006700003D017B16FF00100B6E73046B4E730BCE5
:10068000BDE8C09F40EA0103024630B59B0710D188
:100690004FF0013400E008C208C91D1B9D4315EA54
:1006A000C41FF8D013F0FF0102F8011B0DD01B0A84
:1006B000F8E711F8013B002B02F8013B05D011F8D7
:1006C000013B002B02F8013BF3D130BD10B5431CB8
:1006D00002E010F8011B71B18107FAD14FF001322D
:1006E00002C88C1A8C4314EAC211F9D0C01A0A0647
:1006F00003D0C01E10BDC01A10BD0A0401D0801E58
:1007000010BD0902FCD0401E10BD10B5203AC0F04B
:100710000B80B1E81850203AA0E81850B1E8185002
:10072000A0E81850BFF4F5AF5FEA027C24BFB1E83F
:100730001850A0E8185044BF18C918C0BDE81040B0
:100740005FEA827C24BF51F8043B40F8043B08BFB9
:100750007047D20728BF31F8023B48BF11F8012B80
:1007600028BF20F8023B48BF00F8012B70477047B4
:10077000704770472DE9F0470D469946924604466A
:1007800000F124080168880604D5E06921F0100111
:10079000216000E00120A84201DD471B00E00027A6
:1007A000A1697A1902EB0900081AA0612078C00635
:1007B00002D42046AFF30080002608E0D4E90121EE
:1007C0001AF806009047206A401C761C20624E45AD
:1007D000F4DB2078C0060AD52046AFF3008006E09F
:1007E000D4E9012130209047206A401C2062381E45
:1007F000A7F10107F4DC07E0D4E9012118F80500AE
:100800009047206A401C2062281EA5F10105F3DCF8
:100810002046AFF300802078000602D50220BDE814
:10082000F0870120FBE7000001694A1C026108789B
:10083000704700B58FB0CDE9013100210591054920
:100840007944CDE9031011466846FFF755FD0FB016
:1008500000BD0000E5FFFFFF0A6802F8010B0A6017
:10086000704710B5436913B1AFF3008001E0FFF7A3
:1008700077FD012010BD127800F124010A700022DA
:100880004A700122EDE711684FF0FF32E9E73A289C
:1008900000D2303820F02002412A01D3A2F13700E3
:1008A000884201D34FF0FF3070470000034B7B4478
:1008B0009361034B7B44D36100F00AB8F70E00004C
:1008C0003B0000000268114413780160184670472D
:1008D000D16005497944516104497944116200218C
:1008E0001161114600F056B8EDFFFFFFA5000000B2
:1008F000704710B54FF0FF34C1688A020FD5036B03
:1009000042689A420BD1014690F82520104600F02B
:10091000FFF9401C01D1204610BD002010BD11F090
:10092000C00FF8D1026941689142F4D90268491EAA
:10093000521CC0E90021F0E7754600F017FAAE46F8
:1009400005006946534620F00700854618B020B5DB
:10095000FFF7A2FCBDE820404FF000064FF0000773
:100960004FF000084FF0000B21F00701AC46ACE857
:10097000C009ACE8C009ACE8C009ACE8C0098D46C4
:10098000704710B5044600F0F5F90068005D00F00E
:10099000010010BD2DE9F34F4FF0000A0C465646FA
:1009A0008DB001200C9001F10C000B9062690B9846
:1009B00001219047051E2DD0252D2CD0216A884776
:1009C000C0B162690B9801219047216A88470028CD
:1009D000F7D16269411E0B98904700E0761CA1692F
:1009E0000D988847216A88470028F7D1E1690D985A
:1009F0008847DBE7A1690D988847A842074601D1DF
:100A0000761CD3E7E1690D9888477F1C02D1BAF1C3
:100A1000000F6FD06BE162690B9800273D463946A5
:100A200090472A2804D162690B980121904701253B
:100A3000DFF8D08262690B9801219047A0F1300164
:100A40000A290AD24745E5DC07EB870100EB41079D
:100A5000303FDFD445F01005ECE7E90601D46FF034
:100A600000476C280AD04C2814D0682815D06A2872
:100A70000DD074281CD07A281AD01DE062690B981A
:100A8000012190476C2802D045F0040514E045F0A0
:100A900002050DE045F020050AE062690B9801218E
:100AA0009047682802D045F0080505E045F4006548
:100AB00062690B9801219047C4E9015765283DD030
:100AC00019DC58287AD00CDC452837D004DC2528DE
:100AD00026D041289ED131E046282FD0472899D1F1
:100AE0002CE05B2877D0612828D063287CD064284C
:100AF00023D15AE0F6E06F2848D008DC66281DD0E4
:100B000067281BD0692821D06E2816D127E07028CD
:100B100045D0732868D0752847D078280DD14DE08E
:100B2000A1690D988847252805463FF469AFE1691A
:100B30000D9888476D1C3FF46AAFD8E00D992346A5
:100B40006A466FF00100AFF30080C5E045F0400059
:100B500023464FF000026060A80736D43EE0E80765
:100B60007FF447AF2068011D21600068290501D589
:100B700006701BE7290701D5068017E7A90703D5EB
:100B8000F117C0E9006111E706600FE745F040008A
:100B900023464FF008026060A80716D41EE040F616
:100BA0000E0125EA0100606016E045F04000234692
:100BB0004FF00A026060A80707D40FE045F040003C
:100BC0006060A80708D5234610220D996FF0010038
:100BD000AFF3008080E007E0102223460D996FF00C
:100BE0000100FFF733FC77E04FF0000963284F4620
:100BF000C8464B46CB4602D05B2806D038E0E80614
:100C000001D40120A060012732E06269D4F80CB061
:100C10000B98012190475E2807D14FF00109494602
:100C20006269D4F80CB00B989047216939B900215A
:100C30000A4603AB43F82120491C0829FADBD8B344
:100C4000216949B308F1010862690B9801219047B5
:100C50005D28F4D1B9F1000F09D0002003A951F8A3
:100C60002020D24341F82020401C0828F7DB03ABAA
:100C70002069002820794FEA40701ED05B4622464A
:100C8000CDF80080CDE901970D9900286FF00100A3
:100C900020DAAFF300801FE0C11703AA00EBD16197
:100CA0004B1121F01F0102EB8302411A136801204E
:100CB000884003431360C7E719E00D9922460028D6
:100CC0006FF00100009702DAAFF3008004E0FFF755
:100CD00066FC01E0AFF3008000280ADA401C06D170
:100CE0000C9820B14FF0FF300FB000F00DB8504617
:100CF000FAE7E90701D10AF1010A064400200C9045
:100D000054E60000CCCCCC0C30BCBDE8C08F000059
:100D1000CA68431C0FD00D4B1A420CD1D3070AD01E
:100D200081F825004B680B6300238B6012F0C06FC5
:100D30000B6003D004E04FF0FF30704742F00072C8
:100D4000034B1A40034B1A43CA60704780200800C7
:100D5000BFFFDFFF0010480010B50446AFF300806E
:100D60002046BDE81040FFF769BA00000048704710
:100D7000F003002010B500F005F8001D10BD00BF05
:100D80004D0A000000487047100400200149182057
:100D9000ABBEFEE7260002004FF0013C50F8042BEA
:100DA00051F8043B9A4221D1A2EB0C03934313EA7E
:100DB000CC1317D150F8042B51F8043B9A4215D1AB
:100DC000A2EB0C03934313EACC130BD150F8042B82
:100DD00051F8043B9A4209D1A2EB0C03934313EA66
:100DE000CC13DBD04FF00000704700BFD01A01BA1F
:100DF000B1FA81F101F0180122FA01F0CB40C1F102
:100E00002001DBB2C0B2C01A2CFA01F3D11A91430F
:100E100011EAC311E6D1704770470000F0B595B0F4
:100E20004C22314901A8FFF770FC5CE02F4D304E99
:100E30002A4630A13048FFF749FAC4B222462E496B
:100E40002E4800F065FC32462DA12B48FFF73EFAF4
:100E5000C4B222462849294800F05AFC14A929A006
:100E6000FFF7E4FA05220121149800F071FC08B99B
:100E700015B0F0BD1498012806D0022819D0032817
:100E80002CD004282CD12AE001A8FFF71FFC07462C
:100E90003A4601A9194800F03BFC14A919A0FFF734
:100EA000C5FA64225142149800F052FC00B9DFE701
:100EB00017E001A8FFF70AFC07463A4601A90F48C8
:100EC00000F026FC14A90FA0FFF7B0FA64225142EB
:100ED000149800F03DFC00B9CAE702E001E000E030
:100EE000C6E700BF00BFA1E70418000818190008F2
:100EF000001D000825730A0008000020004400407F
:100F00002573000025640000F8B50020009000253E
:100F10000026114F3A4611A11148FFF7D7F9C4B284
:100F200022460F490F4800F0F3FB13E033462A46F0
:100F30000DA10B48FFF7CAF9C4B222460849094877
:100F400000F0E6FB694617A0FFF770FA0098012849
:100F500000D1F8BDEAE70000441A000825730A0032
:100F600008000020004400404C656674204D6F74FA
:100F70006F722052504D3A25640952696768742097
:100F80004D6F746F722052504D3A25640A0D204502
:100F90006E746572203120746F20517569740A0D6A
:100FA000000000002564000070B5B2B00DA16846D5
:100FB000FFF768FB0E4D2A460EA10F48FFF786F992
:100FC000C4B222460C490D4800F0A2FB6846FFF768
:100FD0007DFB064632466946084800F099FB32B070
:100FE00070BD0000446174613A204E2F4100000042
:100FF0005018000825730A00080000200044004033
:1010000070B5ACB02C220FA101A8FFF77EFB184DE4
:101010002A4618A11848FFF759F9C4B222461649C2
:10102000164800F075FB01A8FFF750FB0646324654
:1010300001A9124800F06CFB0CA911A0FFF7F6F90A
:101040002CB070BD0A0D506C6561736520456E74DF
:101050006572204D65737361676520546F20446924
:1010600073706C6179204F6E204C43440000000087
:10107000B418000825730A0008000020004400404E
:1010800025730000F8B5234D234E24A32A4627A13B
:101090002848FFF71BF9C4B222462649264800F02B
:1010A00037FB324625A12348FFF710F9C4B2224688
:1010B0002049214800F02CFB694621A0FFF7B6F932
:1010C00007220121009800F043FB00B9F8BD009809
:1010D00008281AD2DFE800F01904070A0D101316C9
:1010E00000F0E8F812E000F099F80FE0FFF796FE44
:1010F0000CE0FFF709FF09E0FFF782FF06E000F0D0
:1011000021F803E0FFF750FF00E0DFE700BF00BF7A
:10111000DCE700000C1B0008A41B0008417072698A
:101120006C2C3236203230323000000025732573AB
:101130000A00000008000020004400402573000061
:1011400025640000F0B5CDB0302221A140A8FFF702
:10115000DCFA3BE02A4D2B4E2A462BA12B48FFF709
:10116000B5F8C4B222462949294800F0D1FA3246DE
:1011700028A12648FFF7AAF8C4B2224623492448EA
:1011800000F0C6FA4CA924A0FFF750F9052201216E
:101190004C9800F0DDFA08B94DB0F0BD4C9801282C
:1011A00002D002280FD10DE040A8FFF78FFA0746C2
:1011B0003A4640A9164800F0ABFA694615A0FFF779
:1011C00035F901E000E0E7E700BF00BFC2E700003B
:1011D0000A0D20456E746572204D657373616765F5
:1011E00020596F7520576F756C64204C696B6520B2
:1011F000546F2053656E64203A200D0A00000000F1
:10120000E0190008A01C000825730A00080000204F
:1012100000440040257300002564000070B58EB0C6
:10122000302213A101A8FFF770FA1D4D2A461DA117
:101230001D48FFF74BF8C4B222461B491B4800F07B
:1012400067FA01A8FFF742FA0646324601A9174895
:1012500000F05EFA0DA916A0FFF7E8F85A22002167
:101260000D9800F075FA08B90EB070BD00BFFBE72D
:101270000A0D506C6561736520456E74657220536C
:101280006572766F20506F736974696F6E20546F4A
:1012900020536574203020746F2039300000000026
:1012A0007C19000825730A00080000200044004053
:1012B00025640000F0B597B0302233A10AA8FFF7EB
:1012C00024FA28223CA16846FFF71FFA5BE0444D50
:1012D000444E2A4644A14548FEF7F8FFC4B22246D0
:1012E0004249434800F014FA324642A13F48FEF713
:1012F000EDFFC4B222463D493D4800F009FA16A967
:101300003DA0FFF793F805220121169800F020FA7E
:1013100008B917B0F0BD1698062831D2DFE800F002
:10132000300304051A2F2CE02BE00AA8FFF7CEF9B2
:1013300007463A460AA92E4800F0EAF916A92EA057
:10134000FFF774F8B4220021169800F001FA00B9F2
:10135000DFE716E06846FFF7B9F907463A466946FF
:10136000234800F0D5F916A923A0FFF75FF8022261
:101370000121169800F0ECF900B9CAE701E000E09D
:10138000C7E700BF00BFA2E70A0D20456E74657273
:10139000204C6F636174696F6E20546F20536574C5
:1013A000205374657070657220283020746F20316E
:1013B0003830293A200D0A000A0D20536574205355
:1013C0007465702053697A650D0A312E2048616C6E
:1013D000660A0D322E2046756C6C0A0D0000000066
:1013E000A81A0008A41D000825730A0008000020A0
:1013F0000044004025730000256400005E49096830
:1014000021F007015C4A11601146096841F00201B0
:1014100011605A49096841F48071584A116000BF4F
:101420005649096801F480610029F9D01020534918
:10143000496821F0F851514A51601146496841EA22
:10144000006151601146096821F08071116000BF90
:101450004A49096801F00071B1F1007FF8D04749AD
:10146000C96821F00301454AD1601146C96841F0BD
:101470000201D1601146C96821F4FE4141F4A05136
:10148000D1601146C96821F0700141F01001D160AE
:101490001146C96821F0C061D1601146C96841F0A8
:1014A0008071D1601146096841F08071116000BF00
:1014B0003249096801F000710029F9D02F49896883
:1014C00021F003012D4A91601146896841F0030122
:1014D000916000BF2949896801F00C010C29F9D1FC
:1014E0002649896821F0F001244A916011468968F3
:1014F00021F4E06191601146896821F460519160A6
:101500001146096821F08061116000BF1B4909681C
:1015100001F08061B1F1806FF8D01849096921F4B8
:10152000FE41164A11611146096941F4C051116129
:101530001146096941F4003111611146096941F40C
:10154000803111611146096841F08061116000BF6E
:101550000A49096801F080610029F9D007498831FA
:10156000096821F44001054AC2F888101146096E45
:1015700041F4001111667047002002400010024043
:101580001A48C06C40F008001849C8641848006840
:1015900020F47050164908600846006840F4205056
:1015A000086013482030006840F0EE601049203198
:1015B00008600F480830006840F470500C4908314A
:1015C0000860081D006820F47050091D0860084676
:1015D000006840F4A05008600548001D006820F035
:1015E00060000349091D08607047000000100240B8
:1015F000000C004800B50D48806D40F400300B49E8
:1016000088650A488830006820F00C00C1F888001E
:101610000846D0F8880040F00400C1F88800FFF7C1
:10162000AFFF034800F010F800BD000000100240BA
:1016300000440040642242430723B2FBF3F100BFA1
:101640004A1E111EFCD17047016821F001010160A2
:10165000016821F010210160016821F4004101605E
:10166000416821F44051416042F28D01C16001683E
:1016700041F00C0101601E4988421BD1016841F014
:1016800020010160016821F040010160016821F042
:1016900010010160016821F080010160016821F4FE
:1016A00080710160016821F040010160016821F052
:1016B000010101600F49884209D1016A41F04001EE
:1016C00001620D49096841F0C0010B4A11600168CF
:1016D00041F00101016000BFC16901F4001100295E
:1016E000FAD000BFC16901F480010029FAD0704727
:1016F000004C00400044004008380140014600BF53
:10170000C86900F020000028FAD0888CC0B2704769
:10171000F0B504460E46174600250CE000BFE06910
:1017200000F080000028FAD0705D20854FF496709C
:10173000FFF780FF6D1CBD42F0D300BFE06900F0F1
:1017400040000028FAD0E06920F04000E061F0BDE0
:10175000F0B587B004460D461646AC4201DBB442F4
:1017600011DD182209A101A8FEF7CFFF01A8FEF79D
:10177000ADFF07463A4601A90A48FFF7C9FF4FF0F7
:10178000FF3007B0F0BD60B2FBE700000A0D205348
:10179000656C656374696F6E20496E76616C69640F
:1017A0000A0D00000044004070B505460248FFF7EE
:1017B000A5FF0446204670BD00440040FFF71EFE12
:1017C000FFF718FF01E0FFF75DFCFCE710B500290B
:1017D0000AD00878002807D005487844FFF7DCFADB
:1017E000002801D0002010BD0248784410BD000040
:1017F000A20600009A0600004FF04070E1EE100AC9
:10180000704700000A0D20536574204D6F746F728D
:101810002044757479204379636C65202D31303014
:101820002520746F203130302520286E6567617463
:101830006976652076616C75657320666F722062CB
:1018400061636B776172647329203A200D0A00008E
:101850000D0A0A2A2A2A2A2A2A2A2A2A2A2A2A2A45
:101860002A2A2A2A2A2A2A2A2A2A2A2A2A2A2A2AD8
:101870002A0A0D2A20494D552054657374696E67F4
:10188000204D656E75202020202020202020202043
:101890002A0A0D2A2A2A2A2A2A2A2A2A2A2A2A2AE5
:1018A0002A2A2A2A2A2A2A2A2A2A2A2A2A2A2A2A98
:1018B0002A0A0D000D0A0A2A2A2A2A2A2A2A2A2A4C
:1018C0002A2A2A2A2A2A2A2A2A2A2A2A2A2A2A2A78
:1018D0002A2A2A2A2A0A0D2A2020202020204C43A6
:1018E000442054657374696E67204D656E752020C1
:1018F000202020202A0A0D2A2A2A2A2A2A2A2A2AAD
:101900002A2A2A2A2A2A2A2A2A2A2A2A2A2A2A2A37
:101910002A2A2A2A2A0A0D000D0A0A2A2A2A2A2AEB
:101920002A2A2A2A2A2A2A2A2A2A2A2A2A2A2A2A17
:101930002A2A2A2A2A2A2A2A2A0A0D2A2044432025
:101940004D6F746F722054657374696E67204D65B6
:101950006E752020202020202A0A0D2A2A2A2A2AD1
:101960002A2A2A2A2A2A2A2A2A2A2A2A2A2A2A2AD7
:101970002A2A2A2A2A2A2A2A2A0A0D000D0A0A2A8B
:101980002A2A2A2A2A2A2A2A2A2A2A2A2A2A2A2AB7
:101990002A2A2A2A2A2A2A2A2A2A2A2A2A0A0D2AE4
:1019A0002020202020536572766F2054657374695F
:1019B0006E67204D656E7520202020202A0A0D2A92
:1019C0002A2A2A2A2A2A2A2A2A2A2A2A2A2A2A2A77
:1019D0002A2A2A2A2A2A2A2A2A2A2A2A2A0A0D00CE
:1019E0000D0A0A2A2A2A2A2A2A2A2A2A2A2A2A2AB4
:1019F0002A2A2A2A2A2A2A2A2A2A2A2A2A2A2A2A47
:101A00002A0A0D2A2020525332333220436F6D6D43
:101A1000732054657374696E67204D656E75202060
:101A20002A0A0D2A2A2A2A2A2A2A2A2A2A2A2A2A53
:101A30002A2A2A2A2A2A2A2A2A2A2A2A2A2A2A2A06
:101A40002A0A0D000D0A0A2A2A2A2A2A2A2A2A2ABA
:101A50002A2A2A2A2A2A2A2A2A2A2A2A2A2A2A2AE6
:101A60002A2A2A2A2A0A0D2A204D6F746F722045CD
:101A70006E636F6465722054657374696E67204D80
:101A8000656E75202A0A0D2A2A2A2A2A2A2A2A2A33
:101A90002A2A2A2A2A2A2A2A2A2A2A2A2A2A2A2AA6
:101AA0002A2A2A2A2A0A0D000D0A0A2A2A2A2A2A5A
:101AB0002A2A2A2A2A2A2A2A2A2A2A2A2A2A2A2A86
:101AC0002A2A2A2A2A2A2A2A2A0A0D2A205374650F
:101AD00070706572204D6F746F72205465737469F5
:101AE0006E67204D656E75202A0A0D2A2A2A2A2A39
:101AF0002A2A2A2A2A2A2A2A2A2A2A2A2A2A2A2A46
:101B00002A2A2A2A2A2A2A2A2A0A0D000D0A0A2DF6
:101B10002D2D2D2D2D2D2D2D2D2D2D2D2D2D2D2DF5
:101B20002D2D2D2D2D2D2D2D2D2D2D2D2D2D2D0A08
:101B30000D2A204D6F62696C6520436F6E74726F61
:101B40006C6C6572205465737420436865636B2008
:101B50002A0A0D2A2042793A204E6F6C616E205479
:101B6000686F6D61732020563A20312E302020207E
:101B700020202A0A0D2D2D2D2D2D2D2D2D2D2D2DF5
:101B80002D2D2D2D2D2D2D2D2D2D2D2D2D2D2D2D85
:101B90002D2D2D2D2D0A0D4275696C642044617424
:101BA000653A20000D0A4D61696E204D656E750A1B
:101BB0000A0D312E2053746570706572204D6F745C
:101BC0006F7220436865636B200A0D322E205365C7
:101BD00072766F20436865636B200A0D332E2044B4
:101BE00043204D6F746F7220436865636B20284FEC
:101BF00070656E204C6F6F7029200A0D342E2044C2
:101C000043204D6F746F7220456E636F6465722060
:101C1000436865636B20284D6F746F722053706545
:101C2000656429200A0D352E204C43442043686505
:101C3000636B200A0D362E20525332333220436F0D
:101C40006D6D7320436865636B200A0D372E204746
:101C500079726F202620416363656C65726F6D65D4
:101C600074657220436865636B200A0D506C656172
:101C7000736520456E7465722054686520436F72E9
:101C8000726573706F6E64696E67204E756D626504
:101C90007220466F7220546573743A200000000071
:101CA000312E2053656E64204D6573736167650A3C
:101CB0000D322E204563686F204D6F64650A0D3329
:101CC0002E2045786974204D656E75200A0D506C84
:101CD0006561736520456E746572205468652043A4
:101CE0006F72726573706F6E64696E67204E756D8A
:101CF00062657220466F7220546573743A2000004A
:101D0000312E205475726E204F6E204D6F746F729D
:101D1000204C6566740A0D322E205475726E204F69
:101D20006E204D6F746F72205269676874200A0DBF
:101D3000332E205475726E204F6666204C65667493
:101D4000204D6F746F72200A0D342E205475726E00
:101D5000204F6666205269676874204D6F746F72F9
:101D6000200A0D352E2045786974204D656E75204A
:101D70000A0D506C6561736520456E746572205460
:101D8000686520436F72726573706F6E64696E6709
:101D9000204E756D62657220466F722054657374B3
:101DA0003A200000312E20486F6D65205374657015
:101DB000706572200A0D322E20436865636B204CDB
:101DC000696D6974205377697463686573200A0DBF
:101DD000332E2053656E64205374657070657220D5
:101DE000546F20506F736974696F6E200A0D342E22
:101DF0002053657420537465702054797065200AEF
:101E00000D352E20476574205374657070657220FF
:101E1000506F736974696F6E200A0D362E204578F5
:101E20006974204D656E75200A0D506C656173658F
:101E300020456E7465722054686520436F72726528
:101E400073706F6E64696E67204E756D6265722087
:101E5000466F7220546573743A2000008C1F00088E
:101E60000000002008000000C4010008941F0008C2
:101E700008000020480A0000E001000810010000EE
:101E800043000000F8FFFFFF00404040404040405A
:101E9000404041414141414040404040404040403D
:101EA00040404040404040404005020202020202E1
:101EB0000202020202020202022020202020202030
:101EC0002020200202020202020290909090909044
:101ED0001010101010101010101010101010101002
:101EE0001010101002020202020288888888888876
:101EF0000808080808080808080808080808080862
:101F00000808080802020202400000000000000069
:101F100000000000000000000000000000000000C1
:101F200000000000000000000000000000000000B1
:101F300000000000000000000000000000000000A1
:101F40000000000000000000000000000000000091
:101F50000000000000000000000000000000000081
:101F60000000000000000000000000000000000071
:101F70000000000000000000000000000000000061
:101F80000000000000000000000000000000000051
:041F9000000000004D
:040000050800018965
:00000001FF
