:020000040800F2
:1000000090060020350200083D0200083F0200086B
:1000100041020008430200084502000800000000F9
:10002000000000000000000000000000470200087F
:1000300049020008000000004B0200084D020008C1
:100040004F0200084F0200084F0200084F0200084C
:100050004F0200084F0200084F0200084F0200083C
:100060004F0200084F0200084F0200084F0200082C
:100070004F0200084F0200084F0200084F0200081C
:100080004F0200084F0200084F0200084F0200080C
:100090004F0200084F0200084F0200084F020008FC
:1000A0004F0200084F0200084F0200084F020008EC
:1000B0004F0200084F0200084F0200084F020008DC
:1000C0004F0200084F0200084F0200084F020008CC
:1000D0004F0200084F020008C90700084F0200083D
:1000E0004F0200084F0200084F0200084F020008AC
:1000F0004F0200084F0200084F0200084F0200089C
:100100004F02000800000000000000004F0200083D
:100110004F0200084F0200084F0200084F0200087B
:100120004F0200084F0200084F0200084F0200086B
:100130004F0200084F02000800000000000000000D
:100140004F0200084F0200084F02000800000000A4
:10015000000000000000000000000000000000009F
:100160004F0200084F0200084F0200084F0200082B
:100170004F0200084F0200084F0200084F0200081B
:100180004F0200084F0200080000000000000000BD
:100190004F02000800F002F800F03CF80AA090E8D6
:1001A000000C82448344AAF10107DA4501D100F032
:1001B00031F8AFF2090EBAE80F0013F0010F18BFC3
:1001C000FB1A43F001031847A4070000C40700000E
:1001D000103A24BF78C878C1FAD8520724BF30C873
:1001E00030C144BF04680C60704700000023002445
:1001F00000250026103A28BF78C1FBD8520728BF37
:1002000030C148BF0B6070471FB500F09EFB1FBD9B
:1002100010B510BD00F06CF81146FFF7F5FF00F0C7
:1002200067FB00F09EF803B4FFF7F2FF03BC00F099
:10023000A5F800000948804709480047FEE7FEE7A7
:10024000FEE7FEE7FEE7FEE7FEE7FEE7FEE7FEE786
:1002500004480549054A064B704700007905000827
:1002600095010008900000209006002090020020D8
:10027000900200200FB4044910B503AA029800F0C0
:1002800009F810BC5DF814FB0400002070477047AB
:1002900070470000074B70B50D467B4400F011F825
:1002A0000446284600F020F810B14FF0FF3070BD32
:1002B000204670BD3706000001694A1C02610878BB
:1002C000704700B58FB0CDE9013100210591054996
:1002D0007944CDE903101146684600F02EF80FB0BE
:1002E00000BD0000E5FFFFFF007B00F080007047CD
:1002F000754600F03FF8AE4605006946534620F0CB
:100300000700854618B020B5FFF7A2FFBDE82040E2
:100310004FF000064FF000074FF000084FF0000BC1
:1003200021F00701AC46ACE8C009ACE8C009ACE874
:10033000C009ACE8C0098D4670472DE9F04106467A
:100340000024D6E90170F5688046304603E0414656
:10035000B847641C3046A8470028F8D12046BDE8BD
:10036000F08110B50446AFF300802046BDE8104090
:10037000FFF759BF0048704730000020014918209E
:10038000ABBEFEE72600020070474FF09040406988
:1003900040F020004FF090414861704700B5304870
:1003A000406940F480202E4948612E48006820F0C2
:1003B0000300801C2B4908602A482030006820F088
:1003C0000F00801D27492031086026480C30006846
:1003D00020F0030023490C3108602148806940F473
:1003E00000601F4988612048006820F010001E4905
:1003F00008604F201C492831086040F2E730091D91
:100400000860194818300068184908401649183122
:100410000860322000F056F813484430006840F479
:1004200000401149443108600F481830006840F01E
:1004300060000D49183108600B482030006820F03A
:1004400080000949203108600846006840F04000FB
:1004500008600548006840F001000349086000BDDD
:100460000010024000040048002C01408FFFFEFFF6
:100470001348406940F40030114948614FF0904002
:10048000006820F440604FF0904108600846006822
:1004900040F4806008600846806820F4406088600E
:1004A0000846806840F4406088600846406820F054
:1004B000200048600846C06820F44060C86070476B
:1004C0000010024000EB80014900014A11607047B2
:1004D000382C014030B50021002000230022224C9E
:1004E000646804F00C0121B1042906D0082929D13F
:1004F00007E01E4C1E4D2C6028E01C4C1C4D2C604F
:1005000024E0194C646804F47010174C646804F417
:10051000C033022404EB9040134CE46A04F00F044F
:10052000621CB3F5803F06D1104CB4FBF2F4444397
:100530000F4D2C6005E00D4CB4FBF2F444430C4D20
:100540002C6003E0094C0A4D2C6000BF00BF064C34
:100550006468C4F30314074D295D054C2468CC403E
:10056000034D2C6030BD00000010024000127A00E4
:100570000C000020540900081948006840F470007D
:10058000174908601748006840F0010015490860E5
:100590000846406814490840124948600846006807
:1005A000124908400F4908600846006820F480207E
:1005B00008600846406820F4FE0048600846C06AAB
:1005C00020F00F00C8620846006B09490840054941
:1005D000086300208860C8030149803908607047BB
:1005E00088ED00E0001002400CC07FF8FFFFF6FE2F
:1005F000CCFC00FF3848006820F00700364908604E
:100600000846006840F0040008603448006840F480
:1006100080303249086000BF3048006800F4003084
:100620000028F9D02D48006820F080702B49086020
:1006300000BF2A48006800F00070B0F1007FF8D0D9
:100640002648406820F4C030244948600846406885
:1006500040F4803048600846406840F00040486000
:100660000846406820F4701040F4E01048600846E6
:10067000006840F08070086000BF1848006800F013
:1006800000700028F9D01548406820F00300134995
:1006900048600846406840F00200486000BF0F48CC
:1006A000406800F00C000828F9D10C48406820F0A0
:1006B000F0000A4948600846406820F460504860ED
:1006C0000846406820F4E06048600846406840F40E
:1006D0008060486070470000002002400010024027
:1006E0001348406940F40030114948614FF0904090
:1006F000006820F0F0004FF0904108600846006864
:1007000040F0A00008600846006A40F4EE4008622D
:100710000846806820F0F00088600846C06820F035
:10072000F000C8600846406820F00C004860704740
:100730000010024010B52048C06940F400301E4946
:10074000C8610846006B20F4403040F480300863F4
:10075000FFF7C6FF194800F04FF81848006840F04E
:100760002000164908600846006820F080000860F4
:1007700026200021002804DB0A07130E104A135418
:1007800006E00A07140E0F4A00F00F031B1FD45493
:1007900000BF262000280DDB00BF00BF00F01F02B5
:1007A000012191404209920002F1E022C2F80011B9
:1007B00000BF00BF00BF10BD001002400044004059
:1007C00000E400E018ED00E000B5034A03490448E6
:1007D00000F0AAF800BD000000000020100000207A
:1007E00000440040642242430723B2FBF3F100BF00
:1007F0004A1E111EFCD17047016821F00101016001
:10080000016821F010210160016821F400410160BC
:10081000416821F4405141601D4909684FF4165266
:10082000B1FBF2F1C160016841F00C0101601949AE
:1008300088421BD1016841F020010160016821F06C
:1008400040010160016821F010010160016821F0A0
:1008500080010160016821F480710160016821F06C
:1008600040010160016821F001010160016841F06F
:100870000101016000BFC16901F400110029FAD033
:1008800000BFC16901F480010029FAD0704700005F
:100890000C000020004C0040F0B504460E46174600
:1008A00000250CE000BFE06900F080000028FAD0CD
:1008B000705D20854FF49670FFF794FF6D1CBD426C
:1008C000F0D300BFE06900F040000028FAD04020DB
:1008D000E061F0BD38B504460D46E0B2009001225B
:1008E00069460248FFF7D8FF204638BD0044004063
:1008F000FFF780FEFFF7EEFDFFF7BAFDFFF71AFFE7
:10090000FFF74CFD04A0FFF7B5FCFFF73EFD02E04A
:100910003C20FFF7D7FDFBE74C4544206973204F8F
:100920006E0D0A0D0A00000010B5C36903F0200324
:1009300053B1838C14680B5513685B1C13601368E8
:10094000202B01D30023136010BD4FF04070E1EE67
:10095000100A7047000000000000000001020304BC
:100960000607080900000000010203048C090008C2
:100970000000002010000000D00100089C090008C1
:100980001000002080060000EC01000800000000BC
:0C099000000000000000000000127A00CF
:040000050800019559
:00000001FF
