:020000040800F2
:1000000090060020350200083D0200083F0200086B
:1000100041020008430200084502000800000000F9
:10002000000000000000000000000000470200087F
:1000300049020008000000004B0200084D020008C1
:100040004F0200084F0200084F0200084F0200084C
:100050004F0200084F0200084F0200084F0200083C
:100060004F0200084F0200084F0200084F0200082C
:100070004F0200084F0200084F0200084F0200081C
:100080004F0200084F0200084F0200084F0200080C
:100090004F0200084F0200084F0200084F020008FC
:1000A0004F0200084F0200084F0200084F020008EC
:1000B0004F0200084F0200084F0200084F020008DC
:1000C0004F0200084F0200084F0200084F020008CC
:1000D0004F0200084F020008010600084F02000806
:1000E0004F0200084F0200084F0200084F020008AC
:1000F0004F0200084F0200084F0200084F0200089C
:100100004F02000800000000000000004F0200083D
:100110004F0200084F0200084F0200084F0200087B
:100120004F0200084F0200084F0200084F0200086B
:100130004F0200084F02000800000000000000000D
:100140004F0200084F0200084F02000800000000A4
:10015000000000000000000000000000000000009F
:100160004F0200084F0200084F0200084F0200082B
:100170004F0200084F0200084F0200084F0200081B
:100180004F0200084F0200080000000000000000BD
:100190004F02000800F002F800F03CF80AA090E8D6
:1001A000000C82448344AAF10107DA4501D100F032
:1001B00031F8AFF2090EBAE80F0013F0010F18BFC3
:1001C000FB1A43F001031847CC040000EC040000C4
:1001D000103A24BF78C878C1FAD8520724BF30C873
:1001E00030C144BF04680C60704700000023002445
:1001F00000250026103A28BF78C1FBD8520728BF37
:1002000030C148BF0B6070471FB500F02EFA1FBD0C
:1002100010B510BD00F031F81146FFF7F5FF00F002
:10022000FDF900F04FF803B4FFF7F2FF03BC00F054
:1002300057F800000948804709480047FEE7FEE7F5
:10024000FEE7FEE7FEE7FEE7FEE7FEE7FEE7FEE786
:1002500004480549054A064B704700006104000840
:1002600095010008900000209006002090020020D8
:1002700090020020704770477047754600F02CF8D8
:10028000AE4605006946534620F00700854618B083
:1002900020B5FFF7DDFFBDE820404FF000064FF02E
:1002A00000074FF000084FF0000B21F00701AC46AB
:1002B000ACE8C009ACE8C009ACE8C009ACE8C009CA
:1002C0008D46704710B50446AFF300802046BDE868
:1002D0001040FFF7A8BF0000004870472C00002026
:1002E00001491820ABBEFEE726000200704700005F
:1002F0001B48406940F400201949486100202CE067
:1003000018490968430003229A409143154A116035
:1003100011460968430001229A401143114A1160B5
:10032000104908310968430003229A4091430D4A5D
:100330000832116011460968430003229A401143B4
:10034000084A08321160111D0968430003229A40CF
:100350009143044A0C321160401C0428D0DB7047E2
:1003600000100240000800481348406940F4003083
:10037000114948614FF09040006820F440604FF010
:10038000904108600846006840F4806008600846B4
:10039000806820F4406088600846806840F44060CF
:1003A00088600846406820F0200048600846C06821
:1003B00020F44060C86070470010024030B5002152
:1003C000002000230022224C646804F00C0121B1BB
:1003D000042906D0082929D107E01E4C1E4D2C60A7
:1003E00028E01C4C1C4D2C6024E0194C646804F47B
:1003F0007010174C646804F4C033022404EB90407E
:10040000134CE46A04F00F04621CB3F5803F06D17C
:10041000104CB4FBF2F444430F4D2C6005E00D4C3E
:10042000B4FBF2F444430C4D2C6003E0094C0A4D3C
:100430002C6000BF00BF064C6468C4F30314074D72
:10044000295D054C2468CC40034D2C6030BD000074
:100450000010024000127A00040000207406000818
:100460001948006840F47000174908601748006890
:1004700040F00100154908600846406814490840EA
:100480001249486008460068124908400F49086050
:100490000846006820F4802008600846406820F480
:1004A000FE0048600846C06A20F00F00C862084697
:1004B000006B094908400549086300208860C803AB
:1004C000014980390860704788ED00E00010024063
:1004D0000CC07FF8FFFFF6FECCFC00FF3848006838
:1004E00020F00700364908600846006840F0040024
:1004F00008603448006840F480303249086000BF2A
:100500003048006800F400300028F9D02D48006819
:1005100020F080702B49086000BF2A48006800F076
:100520000070B0F1007FF8D02648406820F4C03059
:10053000244948600846406840F4803048600846D6
:10054000406840F0004048600846406820F4701061
:1005500040F4E01048600846006840F08070086091
:1005600000BF1848006800F000700028F9D0154856
:10057000406820F00300134948600846406840F096
:100580000200486000BF0F48406800F00C000828D7
:10059000F9D10C48406820F0F0000A49486008464C
:1005A000406820F4605048600846406820F4E060ED
:1005B00048600846406840F480604860704700002A
:1005C000002002400010024010B5024609480078A1
:1005D0001044C1B201F007010748435C07480068B6
:1005E0004FF6F07420401843044C2060014801701D
:1005F000007810BD080000208C0600081408004890
:1006000000B5034A0349044800F01EF800BD00008D
:10061000000000200C00002000440040FFF75EFFB7
:10062000FFF7CCFEFFF7A0FEFFF762FE00BF012040
:10063000FFF7CAFF002000E0401C02498842F6D2C2
:10064000FAE7000040420F0010B5C36903F0200331
:1006500053B1838C14680B5513685B1C13601368CB
:10066000202B01D30023136010BD4FF04070E1EE4A
:10067000100A70470000000000000000010203049F
:10068000060708090000000001020304080A020628
:1006900004050109B4060008000000200C00000059
:1006A000D0010008C00600080C00002084060000ED
:1006B000EC0100080000000000127A0000000000B9
:040000050800019559
:00000001FF
