:020000040800F2
:10000000900600203D020008450200084702000853
:10001000490200084B0200084D02000800000000E1
:100020000000000000000000000000004F02000877
:1000300051020008000000005302000855020008A9
:10004000570200085702000857020008570200082C
:10005000570200085702000857020008570200081C
:10006000570200085702000857020008570200080C
:1000700057020008570200085702000857020008FC
:1000800057020008570200085702000857020008EC
:1000900057020008570200085702000857020008DC
:1000A00057020008570200085702000857020008CC
:1000B00057020008570200085702000857020008BC
:1000C00057020008570200085702000857020008AC
:1000D0005702000857020008A90700085702000845
:1000E000570200085702000857020008570200088C
:1000F000570200085702000857020008570200087C
:10010000570200080000000000000000570200082D
:10011000570200085702000857020008570200085B
:10012000570200085702000857020008570200084B
:1001300057020008570200080000000000000000FD
:10014000570200085702000857020008000000008C
:10015000000000000000000000000000000000009F
:10016000570200085702000857020008570200080B
:1001700057020008570200085702000857020008FB
:1001800057020008570200080000000000000000AD
:100190005702000800F002F800F041F80AA090E8C9
:1001A000000C82448344AAF10107DA4501D100F032
:1001B00036F8AFF2090EBAE80F0013F0010F18BFBE
:1001C000FB1A43F00103184704080000240800004C
:1001D000103A24BF78C878C1FAD8520724BF30C873
:1001E00030C144BF04680C60704700000023002445
:1001F00000250026103A28BF78C1FBD8520728BF37
:1002000030C148BF0B607047632900F0AD8000200B
:1002100070471FB500F0C9FB1FBD10B510BD00F041
:10022000DDF81146FFF7F5FF00F07CFB00F0FBF86E
:1002300003B4FFF7F2FF03BC00F002F9094880475E
:1002400009480047FEE7FEE7FEE7FEE7FEE7FEE7B8
:10025000FEE7FEE7FEE7FEE704480549054A064BD0
:100260007047000059050008950100089000002023
:100270009006002090020020900200200FB4044954
:1002800010B503AA029800F07BF810BC5DF814FBCF
:10029000040000202DE9F0410E46044600202062B3
:1002A0002046E168884730B3252805D0D4E90121EC
:1002B0009047206A401CF2E7E16820460027884703
:1002C000050018D0A5F14100192802D820354FF4B7
:1002D00000673246294620462760FFF795FF40B168
:1002E000012804D0F61D26F007060836D8E7361D8B
:1002F000D6E72846DAE7206ABDE8F08170B50C46FB
:100300000546012A05D02878800600D5EA69002331
:1003100002E0012305E05B1C934202D2E05C00286E
:10032000F9D1A869E618C01AA861286A1844286299
:100330002846AFF3008004E0D5E9012114F8010B51
:100340009047B442F8D32846AFF3008070BD7047A1
:100350007047704710B5436913B1AFF3008001E0F7
:10036000FFF7CCFF012010BD127800F124010A70C4
:1003700000224A700122EDE711684FF0FF32E9E7F1
:10038000074B70B50D467B4400F011F80446284633
:1003900000F020F810B14FF0FF3070BD204670BD66
:1003A0007F05000001694A1C02610878704700B5AA
:1003B0008FB0CDE901310021059105497944CDE99E
:1003C000031011466846FFF765FF0FB000BD00003F
:1003D000E5FFFFFF007B00F080007047754600F0EE
:1003E0002BF8AE4605006946534620F007008546C7
:1003F00018B020B5FFF730FFBDE820404FF00006F1
:100400004FF000074FF000084FF0000B21F00701FC
:10041000AC46ACE8C009ACE8C009ACE8C009ACE83F
:10042000C0098D46704710B50446AFF300802046E2
:10043000BDE81040FFF7FCBE0048704730000020C8
:1004400001491820ABBEFEE72600020070474FF0BE
:100450009040406940F020004FF090414861704763
:100460001348406940F40030114948614FF0904012
:10047000006820F440604FF0904108600846006832
:1004800040F4806008600846806820F4406088601E
:100490000846806840F4406088600846406820F064
:1004A000200048600846C06820F44060C86070477B
:1004B0000010024030B50021002000230022224C11
:1004C000646804F00C0121B1042906D0082929D15F
:1004D00007E01E4C1E4D2C6028E01C4C1C4D2C606F
:1004E00024E0194C646804F47010174C646804F438
:1004F000C033022404EB9040134CE46A04F00F0470
:10050000621CB3F5803F06D1104CB4FBF2F44443B7
:100510000F4D2C6005E00D4CB4FBF2F444430C4D40
:100520002C6003E0094C0A4D2C6000BF00BF064C54
:100530006468C4F30314074D295D054C2468CC405E
:10054000034D2C6030BD00000010024000127A0004
:100550000C000020B40900081948006840F470003D
:10056000174908601748006840F001001549086005
:100570000846406814490840124948600846006827
:10058000124908400F4908600846006820F480209E
:1005900008600846406820F4FE0048600846C06ACB
:1005A00020F00F00C8620846006B09490840054961
:1005B000086300208860C8030149803908607047DB
:1005C00088ED00E0001002400CC07FF8FFFFF6FE4F
:1005D000CCFC00FF3848006820F00700364908606E
:1005E0000846006840F0040008603448006840F4A1
:1005F00080303249086000BF3048006800F40030A5
:100600000028F9D02D48006820F080702B49086040
:1006100000BF2A48006800F00070B0F1007FF8D0F9
:100620002648406820F4C0302449486008464068A5
:1006300040F4803048600846406840F00040486020
:100640000846406820F4701040F4E0104860084606
:10065000006840F08070086000BF1848006800F033
:1006600000700028F9D01548406820F003001349B5
:1006700048600846406840F00200486000BF0F48EC
:10068000406800F00C000828F9D10C48406820F0C0
:10069000F0000A4948600846406820F4605048600D
:1006A0000846406820F4E06048600846406840F42E
:1006B0008060486070470000002002400010024047
:1006C0001348406940F40030114948614FF09040B0
:1006D000006820F0F0004FF0904108600846006884
:1006E00040F0A00008600846006A40F4EE4008624E
:1006F0000846806820F0F00088600846C06820F056
:10070000F000C8600846406820F00C004860704760
:100710000010024010B52048C06940F400301E4966
:10072000C8610846006B20F4403040F48030086314
:10073000FFF7C6FF194800F04FF81848006840F06E
:100740002000164908600846006820F08000086014
:1007500026200021002804DB0A07130E104A135438
:1007600006E00A07140E0F4A00F00F031B1FD454B3
:1007700000BF262000280DDB00BF00BF00F01F02D5
:10078000012191404209920002F1E022C2F80011D9
:1007900000BF00BF00BF10BD001002400044004079
:1007A00000E400E018ED00E000B5034A0349044806
:1007B00000F0EAF800BD000000000020100000205A
:1007C00000440040642242430723B2FBF3F100BF20
:1007D0004A1E111EFCD17047016821F00101016021
:1007E000016821F010210160016821F400410160DD
:1007F000416821F4405141601D4909684FF4165287
:10080000B1FBF2F1C160016841F00C0101601949CE
:1008100088421BD1016841F020010160016821F08C
:1008200040010160016821F010010160016821F0C0
:1008300080010160016821F480710160016821F08C
:1008400040010160016821F001010160016841F08F
:100850000101016000BFC16901F400110029FAD053
:1008600000BFC16901F480010029FAD0704700007F
:100870000C000020004C004070B5034600200BE047
:10088000104C245C0C54104C246824B10E4C246889
:10089000641E0D4D2C60401C9042F1DB10460DE0B3
:1008A000084C245C851A074E7455074C246824B103
:1008B000054C2468641E044D2C60401C2028EFDB8E
:1008C00070BD00001000002000000020F0B50446BC
:1008D0000E46174600250CE000BFE06900F08000DE
:1008E0000028FAD0705D20854FF49670FFF76AFFFC
:1008F0006D1CBD42F0D300BFE06900F0400000284D
:10090000FAD04020E061F0BD38B504460D46E0B2B3
:100910000090012269460248FFF7D8FF204638BD03
:10092000004400401FB5FFF755FEFFF7C3FDFFF77A
:1009300097FDFFF7EFFEFFF78AFD1AE0052202A9F7
:100940000C48FFF799FF9DF80C009DF80B10CDE9BE
:1009500000109DF80A309DF809209DF8081006A0A7
:10096000FFF78CFC002000E0401C06498842FBDBBE
:1009700000BFE3E70044004025632563256325634A
:1009800025630A0040420F0010B5C36903F020033D
:1009900053B1838C14680B5513685B1C1360136888
:1009A000202B01D30023136010BD4FF04070E1EE07
:1009B000100A70470000000000000000010203045C
:1009C000060708090000000001020304EC09000802
:1009D0000000002010000000D0010008FC09000801
:1009E0001000002080060000EC010008000000005C
:0C09F000000000000000000000127A006F
:040000050800019559
:00000001FF
